{
  "address": "0x9C80154e7B38D75EDf360fC1F6b3e65952B2a61e",
  "abi": [
    {
      "anonymous": false,
      "inputs": [
        {
          "indexed": false,
          "internalType": "uint256",
          "name": "attestationId",
          "type": "uint256"
        },
        {
          "indexed": false,
          "internalType": "uint256",
          "name": "schemaId",
          "type": "uint256"
        },
        {
          "indexed": false,
          "internalType": "address",
          "name": "issuer",
          "type": "address"
        },
        {
          "indexed": false,
          "internalType": "address",
          "name": "subject",
          "type": "address"
        },
        {
          "indexed": false,
          "internalType": "string",
          "name": "network",
          "type": "string"
        }
      ],
      "name": "AttestationRegistered",
      "type": "event"
    },
    {
      "anonymous": false,
      "inputs": [
        {
          "indexed": false,
          "internalType": "uint256",
          "name": "recipeId",
          "type": "uint256"
        },
        {
          "indexed": false,
          "internalType": "string",
          "name": "name",
          "type": "string"
        }
      ],
      "name": "RecipeRegistered",
      "type": "event"
    },
    {
      "anonymous": false,
      "inputs": [
        {
          "indexed": false,
          "internalType": "uint256",
          "name": "schemaId",
          "type": "uint256"
        },
        {
          "indexed": false,
          "internalType": "string",
          "name": "name",
          "type": "string"
        },
        {
          "indexed": false,
          "internalType": "address",
          "name": "creator",
          "type": "address"
        }
      ],
      "name": "SchemaRegistered",
      "type": "event"
    },
    {
      "inputs": [
        {
          "internalType": "uint256",
          "name": "attestationId",
          "type": "uint256"
        }
      ],
      "name": "getAttestation",
      "outputs": [
        {
          "components": [
            {
              "internalType": "uint256",
              "name": "id",
              "type": "uint256"
            },
            {
              "internalType": "uint256",
              "name": "schemaId",
              "type": "uint256"
            },
            {
              "internalType": "string",
              "name": "data",
              "type": "string"
            },
            {
              "internalType": "address",
              "name": "issuer",
              "type": "address"
            },
            {
              "internalType": "address",
              "name": "subject",
              "type": "address"
            },
            {
              "internalType": "string",
              "name": "network",
              "type": "string"
            }
          ],
          "internalType": "struct AttestationService.Attestation",
          "name": "",
          "type": "tuple"
        }
      ],
      "stateMutability": "view",
      "type": "function"
    },
    {
      "inputs": [
        {
          "internalType": "uint256",
          "name": "schemaId",
          "type": "uint256"
        }
      ],
      "name": "getSchema",
      "outputs": [
        {
          "components": [
            {
              "internalType": "uint256",
              "name": "id",
              "type": "uint256"
            },
            {
              "internalType": "string",
              "name": "name",
              "type": "string"
            },
            {
              "internalType": "address",
              "name": "creator",
              "type": "address"
            }
          ],
          "internalType": "struct AttestationService.Schema",
          "name": "",
          "type": "tuple"
        }
      ],
      "stateMutability": "view",
      "type": "function"
    },
    {
      "inputs": [],
      "name": "getTotalAttestations",
      "outputs": [
        {
          "internalType": "uint256",
          "name": "",
          "type": "uint256"
        }
      ],
      "stateMutability": "view",
      "type": "function"
    },
    {
      "inputs": [],
      "name": "getTotalSchemas",
      "outputs": [
        {
          "internalType": "uint256",
          "name": "",
          "type": "uint256"
        }
      ],
      "stateMutability": "view",
      "type": "function"
    },
    {
      "inputs": [
        {
          "internalType": "uint256",
          "name": "schemaId",
          "type": "uint256"
        },
        {
          "internalType": "string",
          "name": "data",
          "type": "string"
        },
        {
          "internalType": "address",
          "name": "subject",
          "type": "address"
        },
        {
          "internalType": "string",
          "name": "network",
          "type": "string"
        }
      ],
      "name": "registerAttestation",
      "outputs": [],
      "stateMutability": "nonpayable",
      "type": "function"
    },
    {
      "inputs": [
        {
          "internalType": "string",
          "name": "name",
          "type": "string"
        },
        {
          "internalType": "uint256[]",
          "name": "schemaIds",
          "type": "uint256[]"
        }
      ],
      "name": "registerRecipe",
      "outputs": [],
      "stateMutability": "nonpayable",
      "type": "function"
    },
    {
      "inputs": [
        {
          "internalType": "string",
          "name": "name",
          "type": "string"
        },
        {
          "components": [
            {
              "internalType": "string",
              "name": "name",
              "type": "string"
            },
            {
              "internalType": "enum AttestationService.DataType",
              "name": "dataType",
              "type": "uint8"
            }
          ],
          "internalType": "struct AttestationService.SchemaProperty[]",
          "name": "properties",
          "type": "tuple[]"
        }
      ],
      "name": "registerSchema",
      "outputs": [],
      "stateMutability": "nonpayable",
      "type": "function"
    },
    {
      "inputs": [
        {
          "internalType": "uint256",
          "name": "",
          "type": "uint256"
        },
        {
          "internalType": "uint256",
          "name": "",
          "type": "uint256"
        }
      ],
      "name": "schemaProperties",
      "outputs": [
        {
          "internalType": "string",
          "name": "name",
          "type": "string"
        },
        {
          "internalType": "enum AttestationService.DataType",
          "name": "dataType",
          "type": "uint8"
        }
      ],
      "stateMutability": "view",
      "type": "function"
    }
  ],
  "transactionHash": "0xc7885b394ce6faeaee0f8b7d8dae47a16ecb0a9711072de518678c76cceac16e",
  "args": [],
  "numDeployments": 3,
  "solcInputHash": "797838d962548c0fd7bc8a60d138be4b",
  "bytecode": "0x608060405234801561001057600080fd5b506111e7806100206000396000f3fe608060405234801561001057600080fd5b50600436106100885760003560e01c806377710bbc1161005b57806377710bbc146100fe5780639d74d6ca1461011f578063cb5705b714610132578063e9342f271461014457600080fd5b806329be4db21461008d5780632b26fb29146100b657806342b794d8146100d65780634a4c2a54146100eb575b600080fd5b6100a061009b366004610aef565b61014c565b6040516100ad9190610b4e565b60405180910390f35b6100c96100c4366004610aef565b61037c565b6040516100ad9190610bc9565b6100e96100e4366004610c9e565b6104ad565b005b6100e96100f9366004610c9e565b6106ea565b61011161010c366004610d0a565b61084d565b6040516100ad929190610d42565b6100e961012d366004610e25565b610919565b6000545b6040519081526020016100ad565b600154610136565b6101976040518060c0016040528060008152602001600081526020016060815260200160006001600160a01b0316815260200160006001600160a01b03168152602001606081525090565b60015482106101ed5760405162461bcd60e51b815260206004820152601a60248201527f4174746573746174696f6e20646f6573206e6f7420657869737400000000000060448201526064015b60405180910390fd5b6001828154811061020057610200610eb3565b90600052602060002090600602016040518060c0016040529081600082015481526020016001820154815260200160028201805461023d90610ec9565b80601f016020809104026020016040519081016040528092919081815260200182805461026990610ec9565b80156102b65780601f1061028b576101008083540402835291602001916102b6565b820191906000526020600020905b81548152906001019060200180831161029957829003601f168201915b505050918352505060038201546001600160a01b03908116602083015260048301541660408201526005820180546060909201916102f390610ec9565b80601f016020809104026020016040519081016040528092919081815260200182805461031f90610ec9565b801561036c5780601f106103415761010080835404028352916020019161036c565b820191906000526020600020905b81548152906001019060200180831161034f57829003601f168201915b5050505050815250509050919050565b6103a96040518060600160405280600081526020016060815260200160006001600160a01b031681525090565b60005482106103ca5760405162461bcd60e51b81526004016101e490610f03565b600082815481106103dd576103dd610eb3565b90600052602060002090600302016040518060600160405290816000820154815260200160018201805461041090610ec9565b80601f016020809104026020016040519081016040528092919081815260200182805461043c90610ec9565b80156104895780601f1061045e57610100808354040283529160200191610489565b820191906000526020600020905b81548152906001019060200180831161046c57829003601f168201915b5050509183525050600291909101546001600160a01b031660209091015292915050565b6000808054905090506000604051806060016040528083815260200187878080601f0160208091040260200160405190810160405280939291908181526020018383808284376000920182905250938552505033602093840152508354600181810186559482529082902083516003909202019081559082015191929091908201906105399082610f81565b5060409190910151600290910180546001600160a01b0319166001600160a01b0390921691909117905560005b828110156106a55760036000838152602001908152602001600020604051806040016040528086868581811061059e5761059e610eb3565b90506020028101906105b09190611041565b6105ba9080611061565b8080601f01602080910402602001604051908101604052809392919081815260200183838082843760009201919091525050509082525060200186868581811061060657610606610eb3565b90506020028101906106189190611041565b6106299060408101906020016110a8565b600281111561063a5761063a610d2c565b905281546001810183556000928352602090922081519192600202019081906106639082610f81565b50602082015160018083018054909160ff199091169083600281111561068b5761068b610d2c565b02179055505050808061069d906110d0565b915050610566565b507f896f12832c0ed45b3c52e84a5cc852fdd008b7b5f1346cb21e68f134480968ee818686336040516106db9493929190611120565b60405180910390a15050505050565b60025460005b828110156107435760005484848381811061070d5761070d610eb3565b90506020020135106107315760405162461bcd60e51b81526004016101e490610f03565b8061073b816110d0565b9150506106f0565b506002604051806060016040528083815260200187878080601f016020809104026020016040519081016040528093929190818152602001838380828437600092019190915250505090825250604080516020878102828101820190935287825292830192909188918891829185019084908082843760009201829052509390945250508354600181810186559482526020918290208451600390920201908155908301519293909290830191506107fb9082610f81565b5060408201518051610817916002840191602090910190610a8f565b5050507f8cff5d76b826b28ba999c0ea754db2197daab6126284c5cd6fb802b4f4c3409c8186866040516106db93929190611153565b6003602052816000526040600020818154811061086957600080fd5b90600052602060002090600202016000915091505080600001805461088d90610ec9565b80601f01602080910402602001604051908101604052809291908181526020018280546108b990610ec9565b80156109065780601f106108db57610100808354040283529160200191610906565b820191906000526020600020905b8154815290600101906020018083116108e957829003601f168201915b5050506001909301549192505060ff1682565b600054841061093a5760405162461bcd60e51b81526004016101e490610f03565b600180546040805160c081018252828152602081018881529181018781523360608301526001600160a01b038716608083015260a0820186905283850185556000949094528051600684027fb10e2d527612073b26eecdfd717e6a320cf44b4afac2b0732d9fcbe2b7fa0cf6810191825592517fb10e2d527612073b26eecdfd717e6a320cf44b4afac2b0732d9fcbe2b7fa0cf784015593519293909290917fb10e2d527612073b26eecdfd717e6a320cf44b4afac2b0732d9fcbe2b7fa0cf80190610a069082610f81565b5060608201516003820180546001600160a01b039283166001600160a01b031991821617909155608084015160048401805491909316911617905560a08201516005820190610a559082610f81565b5050507f66c9182169904471f04474d32254dd94eeb408141410ef0084a892f76c3030a481863386866040516106db95949392919061116d565b828054828255906000526020600020908101928215610aca579160200282015b82811115610aca578251825591602001919060010190610aaf565b50610ad6929150610ada565b5090565b5b80821115610ad65760008155600101610adb565b600060208284031215610b0157600080fd5b5035919050565b6000815180845260005b81811015610b2e57602081850181015186830182015201610b12565b506000602082860101526020601f19601f83011685010191505092915050565b6020815281516020820152602082015160408201526000604083015160c06060840152610b7e60e0840182610b08565b60608501516001600160a01b039081166080868101919091528601511660a085810191909152850151848203601f190160c0860152909150610bc08282610b08565b95945050505050565b60208152815160208201526000602083015160606040840152610bef6080840182610b08565b604094909401516001600160a01b0316606093909301929092525090919050565b60008083601f840112610c2257600080fd5b50813567ffffffffffffffff811115610c3a57600080fd5b602083019150836020828501011115610c5257600080fd5b9250929050565b60008083601f840112610c6b57600080fd5b50813567ffffffffffffffff811115610c8357600080fd5b6020830191508360208260051b8501011115610c5257600080fd5b60008060008060408587031215610cb457600080fd5b843567ffffffffffffffff80821115610ccc57600080fd5b610cd888838901610c10565b90965094506020870135915080821115610cf157600080fd5b50610cfe87828801610c59565b95989497509550505050565b60008060408385031215610d1d57600080fd5b50508035926020909101359150565b634e487b7160e01b600052602160045260246000fd5b604081526000610d556040830185610b08565b905060038310610d7557634e487b7160e01b600052602160045260246000fd5b8260208301529392505050565b634e487b7160e01b600052604160045260246000fd5b600082601f830112610da957600080fd5b813567ffffffffffffffff80821115610dc457610dc4610d82565b604051601f8301601f19908116603f01168101908282118183101715610dec57610dec610d82565b81604052838152866020858801011115610e0557600080fd5b836020870160208301376000602085830101528094505050505092915050565b60008060008060808587031215610e3b57600080fd5b84359350602085013567ffffffffffffffff80821115610e5a57600080fd5b610e6688838901610d98565b9450604087013591506001600160a01b0382168214610e8457600080fd5b90925060608601359080821115610e9a57600080fd5b50610ea787828801610d98565b91505092959194509250565b634e487b7160e01b600052603260045260246000fd5b600181811c90821680610edd57607f821691505b602082108103610efd57634e487b7160e01b600052602260045260246000fd5b50919050565b60208082526015908201527414d8da195b5848191bd95cc81b9bdd08195e1a5cdd605a1b604082015260600190565b601f821115610f7c57600081815260208120601f850160051c81016020861015610f595750805b601f850160051c820191505b81811015610f7857828155600101610f65565b5050505b505050565b815167ffffffffffffffff811115610f9b57610f9b610d82565b610faf81610fa98454610ec9565b84610f32565b602080601f831160018114610fe45760008415610fcc5750858301515b600019600386901b1c1916600185901b178555610f78565b600085815260208120601f198616915b8281101561101357888601518255948401946001909101908401610ff4565b50858210156110315787850151600019600388901b60f8161c191681555b5050505050600190811b01905550565b60008235603e1983360301811261105757600080fd5b9190910192915050565b6000808335601e1984360301811261107857600080fd5b83018035915067ffffffffffffffff82111561109357600080fd5b602001915036819003821315610c5257600080fd5b6000602082840312156110ba57600080fd5b8135600381106110c957600080fd5b9392505050565b6000600182016110f057634e487b7160e01b600052601160045260246000fd5b5060010190565b81835281816020850137506000828201602090810191909152601f909101601f19169091010190565b84815260606020820152600061113a6060830185876110f7565b905060018060a01b038316604083015295945050505050565b838152604060208201526000610bc06040830184866110f7565b858152602081018590526001600160a01b0384811660408301528316606082015260a0608082018190526000906111a690830184610b08565b97965050505050505056fea264697066735822122071910286fd59a1da22ab653fa3f30a89caf9df1880a9f1991cde8cef0656881964736f6c63430008140033",
  "devdoc": {
    "author": "0xifis",
    "kind": "dev",
    "methods": {},
    "version": 1
  },
  "userdoc": {
    "kind": "user",
    "methods": {},
    "notice": "A smart contract that allows changing a state variable of the contract and tracking the changes It also allows the owner to withdraw the Ether in the contract",
    "version": 1
  },
  "storageLayout": {
    "storage": [
      {
        "astId": 45,
        "contract": "contracts/AttestationService.sol:AttestationService",
        "label": "schemas",
        "offset": 0,
        "slot": "0",
        "type": "t_array(t_struct(Schema)20_storage)dyn_storage"
      },
      {
        "astId": 49,
        "contract": "contracts/AttestationService.sol:AttestationService",
        "label": "attestations",
        "offset": 0,
        "slot": "1",
        "type": "t_array(t_struct(Attestation)33_storage)dyn_storage"
      },
      {
        "astId": 53,
        "contract": "contracts/AttestationService.sol:AttestationService",
        "label": "recipes",
        "offset": 0,
        "slot": "2",
        "type": "t_array(t_struct(Recipe)41_storage)dyn_storage"
      },
      {
        "astId": 59,
        "contract": "contracts/AttestationService.sol:AttestationService",
        "label": "schemaProperties",
        "offset": 0,
        "slot": "3",
        "type": "t_mapping(t_uint256,t_array(t_struct(SchemaProperty)13_storage)dyn_storage)"
      }
    ],
    "types": {
      "t_address": {
        "encoding": "inplace",
        "label": "address",
        "numberOfBytes": "20"
      },
      "t_array(t_struct(Attestation)33_storage)dyn_storage": {
        "base": "t_struct(Attestation)33_storage",
        "encoding": "dynamic_array",
        "label": "struct AttestationService.Attestation[]",
        "numberOfBytes": "32"
      },
      "t_array(t_struct(Recipe)41_storage)dyn_storage": {
        "base": "t_struct(Recipe)41_storage",
        "encoding": "dynamic_array",
        "label": "struct AttestationService.Recipe[]",
        "numberOfBytes": "32"
      },
      "t_array(t_struct(Schema)20_storage)dyn_storage": {
        "base": "t_struct(Schema)20_storage",
        "encoding": "dynamic_array",
        "label": "struct AttestationService.Schema[]",
        "numberOfBytes": "32"
      },
      "t_array(t_struct(SchemaProperty)13_storage)dyn_storage": {
        "base": "t_struct(SchemaProperty)13_storage",
        "encoding": "dynamic_array",
        "label": "struct AttestationService.SchemaProperty[]",
        "numberOfBytes": "32"
      },
      "t_array(t_uint256)dyn_storage": {
        "base": "t_uint256",
        "encoding": "dynamic_array",
        "label": "uint256[]",
        "numberOfBytes": "32"
      },
      "t_enum(DataType)7": {
        "encoding": "inplace",
        "label": "enum AttestationService.DataType",
        "numberOfBytes": "1"
      },
      "t_mapping(t_uint256,t_array(t_struct(SchemaProperty)13_storage)dyn_storage)": {
        "encoding": "mapping",
        "key": "t_uint256",
        "label": "mapping(uint256 => struct AttestationService.SchemaProperty[])",
        "numberOfBytes": "32",
        "value": "t_array(t_struct(SchemaProperty)13_storage)dyn_storage"
      },
      "t_string_storage": {
        "encoding": "bytes",
        "label": "string",
        "numberOfBytes": "32"
      },
      "t_struct(Attestation)33_storage": {
        "encoding": "inplace",
        "label": "struct AttestationService.Attestation",
        "members": [
          {
            "astId": 22,
            "contract": "contracts/AttestationService.sol:AttestationService",
            "label": "id",
            "offset": 0,
            "slot": "0",
            "type": "t_uint256"
          },
          {
            "astId": 24,
            "contract": "contracts/AttestationService.sol:AttestationService",
            "label": "schemaId",
            "offset": 0,
            "slot": "1",
            "type": "t_uint256"
          },
          {
            "astId": 26,
            "contract": "contracts/AttestationService.sol:AttestationService",
            "label": "data",
            "offset": 0,
            "slot": "2",
            "type": "t_string_storage"
          },
          {
            "astId": 28,
            "contract": "contracts/AttestationService.sol:AttestationService",
            "label": "issuer",
            "offset": 0,
            "slot": "3",
            "type": "t_address"
          },
          {
            "astId": 30,
            "contract": "contracts/AttestationService.sol:AttestationService",
            "label": "subject",
            "offset": 0,
            "slot": "4",
            "type": "t_address"
          },
          {
            "astId": 32,
            "contract": "contracts/AttestationService.sol:AttestationService",
            "label": "network",
            "offset": 0,
            "slot": "5",
            "type": "t_string_storage"
          }
        ],
        "numberOfBytes": "192"
      },
      "t_struct(Recipe)41_storage": {
        "encoding": "inplace",
        "label": "struct AttestationService.Recipe",
        "members": [
          {
            "astId": 35,
            "contract": "contracts/AttestationService.sol:AttestationService",
            "label": "id",
            "offset": 0,
            "slot": "0",
            "type": "t_uint256"
          },
          {
            "astId": 37,
            "contract": "contracts/AttestationService.sol:AttestationService",
            "label": "name",
            "offset": 0,
            "slot": "1",
            "type": "t_string_storage"
          },
          {
            "astId": 40,
            "contract": "contracts/AttestationService.sol:AttestationService",
            "label": "schemaIds",
            "offset": 0,
            "slot": "2",
            "type": "t_array(t_uint256)dyn_storage"
          }
        ],
        "numberOfBytes": "96"
      },
      "t_struct(Schema)20_storage": {
        "encoding": "inplace",
        "label": "struct AttestationService.Schema",
        "members": [
          {
            "astId": 15,
            "contract": "contracts/AttestationService.sol:AttestationService",
            "label": "id",
            "offset": 0,
            "slot": "0",
            "type": "t_uint256"
          },
          {
            "astId": 17,
            "contract": "contracts/AttestationService.sol:AttestationService",
            "label": "name",
            "offset": 0,
            "slot": "1",
            "type": "t_string_storage"
          },
          {
            "astId": 19,
            "contract": "contracts/AttestationService.sol:AttestationService",
            "label": "creator",
            "offset": 0,
            "slot": "2",
            "type": "t_address"
          }
        ],
        "numberOfBytes": "96"
      },
      "t_struct(SchemaProperty)13_storage": {
        "encoding": "inplace",
        "label": "struct AttestationService.SchemaProperty",
        "members": [
          {
            "astId": 9,
            "contract": "contracts/AttestationService.sol:AttestationService",
            "label": "name",
            "offset": 0,
            "slot": "0",
            "type": "t_string_storage"
          },
          {
            "astId": 12,
            "contract": "contracts/AttestationService.sol:AttestationService",
            "label": "dataType",
            "offset": 0,
            "slot": "1",
            "type": "t_enum(DataType)7"
          }
        ],
        "numberOfBytes": "64"
      },
      "t_uint256": {
        "encoding": "inplace",
        "label": "uint256",
        "numberOfBytes": "32"
      }
    }
  }
}