{
  "address": "0x7cC486d012d60FAee85d0cE6037f439174b528D6",
  "abi": [
    {
      "anonymous": false,
      "inputs": [
        {
          "indexed": false,
          "internalType": "uint256",
          "name": "attestationId",
          "type": "uint256"
        },
        {
          "indexed": false,
          "internalType": "uint256",
          "name": "schemaId",
          "type": "uint256"
        },
        {
          "indexed": false,
          "internalType": "address",
          "name": "issuer",
          "type": "address"
        },
        {
          "indexed": false,
          "internalType": "address",
          "name": "subject",
          "type": "address"
        }
      ],
      "name": "AttestationRegistered",
      "type": "event"
    },
    {
      "anonymous": false,
      "inputs": [
        {
          "indexed": false,
          "internalType": "uint256",
          "name": "schemaId",
          "type": "uint256"
        },
        {
          "indexed": false,
          "internalType": "string",
          "name": "name",
          "type": "string"
        },
        {
          "indexed": false,
          "internalType": "address",
          "name": "creator",
          "type": "address"
        }
      ],
      "name": "SchemaRegistered",
      "type": "event"
    },
    {
      "inputs": [
        {
          "internalType": "uint256",
          "name": "attestationId",
          "type": "uint256"
        }
      ],
      "name": "getAttestation",
      "outputs": [
        {
          "components": [
            {
              "internalType": "uint256",
              "name": "id",
              "type": "uint256"
            },
            {
              "internalType": "uint256",
              "name": "schemaId",
              "type": "uint256"
            },
            {
              "internalType": "string",
              "name": "data",
              "type": "string"
            },
            {
              "internalType": "address",
              "name": "issuer",
              "type": "address"
            },
            {
              "internalType": "address",
              "name": "subject",
              "type": "address"
            }
          ],
          "internalType": "struct AttestationService.Attestation",
          "name": "",
          "type": "tuple"
        }
      ],
      "stateMutability": "view",
      "type": "function"
    },
    {
      "inputs": [
        {
          "internalType": "uint256",
          "name": "schemaId",
          "type": "uint256"
        }
      ],
      "name": "getSchema",
      "outputs": [
        {
          "components": [
            {
              "internalType": "uint256",
              "name": "id",
              "type": "uint256"
            },
            {
              "internalType": "string",
              "name": "name",
              "type": "string"
            },
            {
              "internalType": "address",
              "name": "creator",
              "type": "address"
            }
          ],
          "internalType": "struct AttestationService.Schema",
          "name": "",
          "type": "tuple"
        }
      ],
      "stateMutability": "view",
      "type": "function"
    },
    {
      "inputs": [],
      "name": "getTotalAttestations",
      "outputs": [
        {
          "internalType": "uint256",
          "name": "",
          "type": "uint256"
        }
      ],
      "stateMutability": "view",
      "type": "function"
    },
    {
      "inputs": [],
      "name": "getTotalSchemas",
      "outputs": [
        {
          "internalType": "uint256",
          "name": "",
          "type": "uint256"
        }
      ],
      "stateMutability": "view",
      "type": "function"
    },
    {
      "inputs": [
        {
          "internalType": "uint256",
          "name": "schemaId",
          "type": "uint256"
        },
        {
          "internalType": "string",
          "name": "data",
          "type": "string"
        },
        {
          "internalType": "address",
          "name": "subject",
          "type": "address"
        }
      ],
      "name": "registerAttestation",
      "outputs": [],
      "stateMutability": "nonpayable",
      "type": "function"
    },
    {
      "inputs": [
        {
          "internalType": "string",
          "name": "name",
          "type": "string"
        },
        {
          "components": [
            {
              "internalType": "string",
              "name": "name",
              "type": "string"
            },
            {
              "internalType": "enum AttestationService.DataType",
              "name": "dataType",
              "type": "uint8"
            }
          ],
          "internalType": "struct AttestationService.SchemaProperty[]",
          "name": "properties",
          "type": "tuple[]"
        }
      ],
      "name": "registerSchema",
      "outputs": [],
      "stateMutability": "nonpayable",
      "type": "function"
    },
    {
      "inputs": [
        {
          "internalType": "uint256",
          "name": "",
          "type": "uint256"
        },
        {
          "internalType": "uint256",
          "name": "",
          "type": "uint256"
        }
      ],
      "name": "schemaProperties",
      "outputs": [
        {
          "internalType": "string",
          "name": "name",
          "type": "string"
        },
        {
          "internalType": "enum AttestationService.DataType",
          "name": "dataType",
          "type": "uint8"
        }
      ],
      "stateMutability": "view",
      "type": "function"
    }
  ],
  "transactionHash": "0xb7d72e55c56d094552c4b234a6f29a9ecc44abcabe339e47a46f51174351dc4a",
  "args": [],
  "numDeployments": 1,
  "solcInputHash": "5c8c0dfae9fb55e358c4573f35a746ae",
  "bytecode": "0x608060405234801561001057600080fd5b50610e9e806100206000396000f3fe608060405234801561001057600080fd5b506004361061007d5760003560e01c806342b794d81161005b57806342b794d8146100e057806377710bbc146100f3578063cb5705b714610114578063e9342f271461012657600080fd5b806319d9e33e1461008257806329be4db2146100975780632b26fb29146100c0575b600080fd5b6100956100903660046108f5565b61012e565b005b6100aa6100a53660046109c0565b6102d1565b6040516100b79190610a1f565b60405180910390f35b6100d36100ce3660046109c0565b610461565b6040516100b79190610a7f565b6100956100ee366004610ac6565b6105ba565b610106610101366004610b8b565b6107f7565b6040516100b7929190610bc3565b6000545b6040519081526020016100b7565b600154610118565b600054831061017c5760405162461bcd60e51b815260206004820152601560248201527414d8da195b5848191bd95cc81b9bdd08195e1a5cdd605a1b60448201526064015b60405180910390fd5b600180546040805160a081018252828152602081018781529181018681523360608301526001600160a01b038616608083015283850185556000949094528051600584027fb10e2d527612073b26eecdfd717e6a320cf44b4afac2b0732d9fcbe2b7fa0cf6810191825592517fb10e2d527612073b26eecdfd717e6a320cf44b4afac2b0732d9fcbe2b7fa0cf784015593519293909290917fb10e2d527612073b26eecdfd717e6a320cf44b4afac2b0732d9fcbe2b7fa0cf801906102419082610c8c565b506060828101516003830180546001600160a01b03199081166001600160a01b0393841617909155608094850151600490940180549091169382169390931790925560408051858152602081018990523391810191909152918516908201527f7eb79907bd9ad012edd25fc692a5d6af865f3a71b15f32220f916fd8791de0b7910160405180910390a150505050565b6103156040518060a0016040528060008152602001600081526020016060815260200160006001600160a01b0316815260200160006001600160a01b031681525090565b60015482106103665760405162461bcd60e51b815260206004820152601a60248201527f4174746573746174696f6e20646f6573206e6f742065786973740000000000006044820152606401610173565b6001828154811061037957610379610d4c565b90600052602060002090600502016040518060a001604052908160008201548152602001600182015481526020016002820180546103b690610c03565b80601f01602080910402602001604051908101604052809291908181526020018280546103e290610c03565b801561042f5780601f106104045761010080835404028352916020019161042f565b820191906000526020600020905b81548152906001019060200180831161041257829003601f168201915b505050918352505060038201546001600160a01b03908116602083015260049092015490911660409091015292915050565b61048e6040518060600160405280600081526020016060815260200160006001600160a01b031681525090565b60005482106104d75760405162461bcd60e51b815260206004820152601560248201527414d8da195b5848191bd95cc81b9bdd08195e1a5cdd605a1b6044820152606401610173565b600082815481106104ea576104ea610d4c565b90600052602060002090600302016040518060600160405290816000820154815260200160018201805461051d90610c03565b80601f016020809104026020016040519081016040528092919081815260200182805461054990610c03565b80156105965780601f1061056b57610100808354040283529160200191610596565b820191906000526020600020905b81548152906001019060200180831161057957829003601f168201915b5050509183525050600291909101546001600160a01b031660209091015292915050565b6000808054905090506000604051806060016040528083815260200187878080601f0160208091040260200160405190810160405280939291908181526020018383808284376000920182905250938552505033602093840152508354600181810186559482529082902083516003909202019081559082015191929091908201906106469082610c8c565b5060409190910151600290910180546001600160a01b0319166001600160a01b0390921691909117905560005b828110156107b2576002600083815260200190815260200160002060405180604001604052808686858181106106ab576106ab610d4c565b90506020028101906106bd9190610d62565b6106c79080610d82565b8080601f01602080910402602001604051908101604052809392919081815260200183838082843760009201919091525050509082525060200186868581811061071357610713610d4c565b90506020028101906107259190610d62565b610736906040810190602001610dd0565b600281111561074757610747610bad565b905281546001810183556000928352602090922081519192600202019081906107709082610c8c565b50602082015160018083018054909160ff199091169083600281111561079857610798610bad565b0217905550505080806107aa90610df8565b915050610673565b507f896f12832c0ed45b3c52e84a5cc852fdd008b7b5f1346cb21e68f134480968ee818686336040516107e89493929190610e1f565b60405180910390a15050505050565b6002602052816000526040600020818154811061081357600080fd5b90600052602060002090600202016000915091505080600001805461083790610c03565b80601f016020809104026020016040519081016040528092919081815260200182805461086390610c03565b80156108b05780601f10610885576101008083540402835291602001916108b0565b820191906000526020600020905b81548152906001019060200180831161089357829003601f168201915b5050506001909301549192505060ff1682565b634e487b7160e01b600052604160045260246000fd5b80356001600160a01b03811681146108f057600080fd5b919050565b60008060006060848603121561090a57600080fd5b83359250602084013567ffffffffffffffff8082111561092957600080fd5b818601915086601f83011261093d57600080fd5b81358181111561094f5761094f6108c3565b604051601f8201601f19908116603f01168101908382118183101715610977576109776108c3565b8160405282815289602084870101111561099057600080fd5b8260208601602083013760006020848301015280965050505050506109b7604085016108d9565b90509250925092565b6000602082840312156109d257600080fd5b5035919050565b6000815180845260005b818110156109ff576020818501810151868301820152016109e3565b506000602082860101526020601f19601f83011685010191505092915050565b6020815281516020820152602082015160408201526000604083015160a06060840152610a4f60c08401826109d9565b60608501516001600160a01b039081166080868101919091529095015190941660a0909301929092525090919050565b60208152815160208201526000602083015160606040840152610aa560808401826109d9565b604094909401516001600160a01b0316606093909301929092525090919050565b60008060008060408587031215610adc57600080fd5b843567ffffffffffffffff80821115610af457600080fd5b818701915087601f830112610b0857600080fd5b813581811115610b1757600080fd5b886020828501011115610b2957600080fd5b602092830196509450908601359080821115610b4457600080fd5b818701915087601f830112610b5857600080fd5b813581811115610b6757600080fd5b8860208260051b8501011115610b7c57600080fd5b95989497505060200194505050565b60008060408385031215610b9e57600080fd5b50508035926020909101359150565b634e487b7160e01b600052602160045260246000fd5b604081526000610bd660408301856109d9565b905060038310610bf657634e487b7160e01b600052602160045260246000fd5b8260208301529392505050565b600181811c90821680610c1757607f821691505b602082108103610c3757634e487b7160e01b600052602260045260246000fd5b50919050565b601f821115610c8757600081815260208120601f850160051c81016020861015610c645750805b601f850160051c820191505b81811015610c8357828155600101610c70565b5050505b505050565b815167ffffffffffffffff811115610ca657610ca66108c3565b610cba81610cb48454610c03565b84610c3d565b602080601f831160018114610cef5760008415610cd75750858301515b600019600386901b1c1916600185901b178555610c83565b600085815260208120601f198616915b82811015610d1e57888601518255948401946001909101908401610cff565b5085821015610d3c5787850151600019600388901b60f8161c191681555b5050505050600190811b01905550565b634e487b7160e01b600052603260045260246000fd5b60008235603e19833603018112610d7857600080fd5b9190910192915050565b6000808335601e19843603018112610d9957600080fd5b83018035915067ffffffffffffffff821115610db457600080fd5b602001915036819003821315610dc957600080fd5b9250929050565b600060208284031215610de257600080fd5b813560038110610df157600080fd5b9392505050565b600060018201610e1857634e487b7160e01b600052601160045260246000fd5b5060010190565b848152606060208201528260608201528284608083013760008184016080908101919091526001600160a01b03929092166040820152601f909201601f1916909101019291505056fea264697066735822122001883c81ad80d988ef2dc516dd7c66b658747c7bac935470b7932d3b104dc72f64736f6c63430008140033",
  "devdoc": {
    "author": "0xifis",
    "kind": "dev",
    "methods": {},
    "version": 1
  },
  "userdoc": {
    "kind": "user",
    "methods": {},
    "notice": "A smart contract that allows changing a state variable of the contract and tracking the changes It also allows the owner to withdraw the Ether in the contract",
    "version": 1
  },
  "storageLayout": {
    "storage": [
      {
        "astId": 35,
        "contract": "contracts/AttestationService.sol:AttestationService",
        "label": "schemas",
        "offset": 0,
        "slot": "0",
        "type": "t_array(t_struct(Schema)20_storage)dyn_storage"
      },
      {
        "astId": 39,
        "contract": "contracts/AttestationService.sol:AttestationService",
        "label": "attestations",
        "offset": 0,
        "slot": "1",
        "type": "t_array(t_struct(Attestation)31_storage)dyn_storage"
      },
      {
        "astId": 45,
        "contract": "contracts/AttestationService.sol:AttestationService",
        "label": "schemaProperties",
        "offset": 0,
        "slot": "2",
        "type": "t_mapping(t_uint256,t_array(t_struct(SchemaProperty)13_storage)dyn_storage)"
      }
    ],
    "types": {
      "t_address": {
        "encoding": "inplace",
        "label": "address",
        "numberOfBytes": "20"
      },
      "t_array(t_struct(Attestation)31_storage)dyn_storage": {
        "base": "t_struct(Attestation)31_storage",
        "encoding": "dynamic_array",
        "label": "struct AttestationService.Attestation[]",
        "numberOfBytes": "32"
      },
      "t_array(t_struct(Schema)20_storage)dyn_storage": {
        "base": "t_struct(Schema)20_storage",
        "encoding": "dynamic_array",
        "label": "struct AttestationService.Schema[]",
        "numberOfBytes": "32"
      },
      "t_array(t_struct(SchemaProperty)13_storage)dyn_storage": {
        "base": "t_struct(SchemaProperty)13_storage",
        "encoding": "dynamic_array",
        "label": "struct AttestationService.SchemaProperty[]",
        "numberOfBytes": "32"
      },
      "t_enum(DataType)7": {
        "encoding": "inplace",
        "label": "enum AttestationService.DataType",
        "numberOfBytes": "1"
      },
      "t_mapping(t_uint256,t_array(t_struct(SchemaProperty)13_storage)dyn_storage)": {
        "encoding": "mapping",
        "key": "t_uint256",
        "label": "mapping(uint256 => struct AttestationService.SchemaProperty[])",
        "numberOfBytes": "32",
        "value": "t_array(t_struct(SchemaProperty)13_storage)dyn_storage"
      },
      "t_string_storage": {
        "encoding": "bytes",
        "label": "string",
        "numberOfBytes": "32"
      },
      "t_struct(Attestation)31_storage": {
        "encoding": "inplace",
        "label": "struct AttestationService.Attestation",
        "members": [
          {
            "astId": 22,
            "contract": "contracts/AttestationService.sol:AttestationService",
            "label": "id",
            "offset": 0,
            "slot": "0",
            "type": "t_uint256"
          },
          {
            "astId": 24,
            "contract": "contracts/AttestationService.sol:AttestationService",
            "label": "schemaId",
            "offset": 0,
            "slot": "1",
            "type": "t_uint256"
          },
          {
            "astId": 26,
            "contract": "contracts/AttestationService.sol:AttestationService",
            "label": "data",
            "offset": 0,
            "slot": "2",
            "type": "t_string_storage"
          },
          {
            "astId": 28,
            "contract": "contracts/AttestationService.sol:AttestationService",
            "label": "issuer",
            "offset": 0,
            "slot": "3",
            "type": "t_address"
          },
          {
            "astId": 30,
            "contract": "contracts/AttestationService.sol:AttestationService",
            "label": "subject",
            "offset": 0,
            "slot": "4",
            "type": "t_address"
          }
        ],
        "numberOfBytes": "160"
      },
      "t_struct(Schema)20_storage": {
        "encoding": "inplace",
        "label": "struct AttestationService.Schema",
        "members": [
          {
            "astId": 15,
            "contract": "contracts/AttestationService.sol:AttestationService",
            "label": "id",
            "offset": 0,
            "slot": "0",
            "type": "t_uint256"
          },
          {
            "astId": 17,
            "contract": "contracts/AttestationService.sol:AttestationService",
            "label": "name",
            "offset": 0,
            "slot": "1",
            "type": "t_string_storage"
          },
          {
            "astId": 19,
            "contract": "contracts/AttestationService.sol:AttestationService",
            "label": "creator",
            "offset": 0,
            "slot": "2",
            "type": "t_address"
          }
        ],
        "numberOfBytes": "96"
      },
      "t_struct(SchemaProperty)13_storage": {
        "encoding": "inplace",
        "label": "struct AttestationService.SchemaProperty",
        "members": [
          {
            "astId": 9,
            "contract": "contracts/AttestationService.sol:AttestationService",
            "label": "name",
            "offset": 0,
            "slot": "0",
            "type": "t_string_storage"
          },
          {
            "astId": 12,
            "contract": "contracts/AttestationService.sol:AttestationService",
            "label": "dataType",
            "offset": 0,
            "slot": "1",
            "type": "t_enum(DataType)7"
          }
        ],
        "numberOfBytes": "64"
      },
      "t_uint256": {
        "encoding": "inplace",
        "label": "uint256",
        "numberOfBytes": "32"
      }
    }
  }
}